00000000000000000000000000000000000000000000000000000000000000A1048028393600023SARL ACSAN                                                                        2     RUEMONDOVI                00000                           13006 MARSEILLE                 30302209231451                                                  R2000003368                                                                                                                                    
48028393600023000000000000000000000000000000000000000000000000C108970016SARL ACSAN                                                                        2     RUEMONDOVI                00000                           13006 MARSEILLE                 000                                                                                                                                                                                                                   
48028393600023                                0000000000000000T100000336800000001              9303122012010AD                                 MR ROBERT-LEROY               CHRISTIAN                                         01031980               16    RUEGUTENBERG              00000 TREMBLAY EN FRANCE        93290 TREMBLAY EN FRANCE        2     RUEMONDOVI                00000 00000                     13006 MARSEILLE                 00                        
48028393600023                                0000000000000000T110000336800000001              93031                               TLRAON                                                                                                                                                                                                                                                                                                                                       
99999999999999999999999999999999999999999999999999999999999999Z100000000500000000000000000000011315000010800119918639EUREUR                                                                                                                                                                                                                                                                                                                                                     
